:020000020000FC
:0200000033C00B
:1000680008E00EBF0FEF0DBF0EEF0AB90FEF04B98E
:1000780000E00093C50007E60093C40006E0009383
:10008800C20008E10093C100DBD40091C00007FF63
:0A009800FCCF2091C600E1D4F8CFA0
:100A00002A2A2A20486F6C61204C61626F2064653D
:100A1000204D6963726F202A2A2A0A0A457363727D
:100A200069626120312C20322C2033206F20342049
:100A30007061726120636F6E74726F6C6172206C92
:100A40006F73204C45447300E0E0FAE015911030DC
:100A500039F00091C00005FFFCCF1093C600F6CF1F
:100A60000895213039F0223039F0233039F0243024
:100A700039F0089532E006C034E004C038E002C026
:0C0A800030E100C005B1032705B9F3CF39
:00000001FF
