:020000020000FC
:0200000033C00B
:0200340045C0C5
:1000680008E00EBF0FEF0DBF00E00AB90FEF04B9AB
:1000780001E000936F00789419B1137023D009B18F
:1000880003701017C9F701D0F7CF023049F00130DB
:1000980059F0033069F000E000938100289A089530
:1000A80003E000938100089504E00093810008951F
:1000B80005E0009381000895289902C0289A1895B0
:1000C8002898189500E006BD05E005BD05B300FFBA
:0C00D800FDCF00E005BD01E005BB089570
:00000001FF
